{
  "contractName": "FileStorage",
  "abi": [
    {
      "anonymous": false,
      "inputs": [
        {
          "indexed": false,
          "internalType": "uint256",
          "name": "fileId",
          "type": "uint256"
        },
        {
          "indexed": false,
          "internalType": "string",
          "name": "fileHash",
          "type": "string"
        },
        {
          "indexed": false,
          "internalType": "string",
          "name": "fileName",
          "type": "string"
        },
        {
          "indexed": false,
          "internalType": "address",
          "name": "owner",
          "type": "address"
        }
      ],
      "name": "FileUploaded",
      "type": "event"
    },
    {
      "anonymous": false,
      "inputs": [
        {
          "indexed": true,
          "internalType": "address",
          "name": "previousOwner",
          "type": "address"
        },
        {
          "indexed": true,
          "internalType": "address",
          "name": "newOwner",
          "type": "address"
        }
      ],
      "name": "OwnershipTransferred",
      "type": "event"
    },
    {
      "inputs": [],
      "name": "fileCount",
      "outputs": [
        {
          "internalType": "uint256",
          "name": "",
          "type": "uint256"
        }
      ],
      "stateMutability": "view",
      "type": "function",
      "constant": true
    },
    {
      "inputs": [
        {
          "internalType": "uint256",
          "name": "",
          "type": "uint256"
        }
      ],
      "name": "files",
      "outputs": [
        {
          "internalType": "string",
          "name": "fileHash",
          "type": "string"
        },
        {
          "internalType": "string",
          "name": "fileName",
          "type": "string"
        },
        {
          "internalType": "address",
          "name": "owner",
          "type": "address"
        }
      ],
      "stateMutability": "view",
      "type": "function",
      "constant": true
    },
    {
      "inputs": [],
      "name": "owner",
      "outputs": [
        {
          "internalType": "address",
          "name": "",
          "type": "address"
        }
      ],
      "stateMutability": "view",
      "type": "function",
      "constant": true
    },
    {
      "inputs": [],
      "name": "renounceOwnership",
      "outputs": [],
      "stateMutability": "nonpayable",
      "type": "function"
    },
    {
      "inputs": [
        {
          "internalType": "address",
          "name": "newOwner",
          "type": "address"
        }
      ],
      "name": "transferOwnership",
      "outputs": [],
      "stateMutability": "nonpayable",
      "type": "function"
    },
    {
      "inputs": [
        {
          "internalType": "string",
          "name": "_fileHash",
          "type": "string"
        },
        {
          "internalType": "string",
          "name": "_fileName",
          "type": "string"
        }
      ],
      "name": "uploadFile",
      "outputs": [],
      "stateMutability": "nonpayable",
      "type": "function"
    },
    {
      "inputs": [
        {
          "internalType": "uint256",
          "name": "_fileId",
          "type": "uint256"
        }
      ],
      "name": "getFile",
      "outputs": [
        {
          "internalType": "string",
          "name": "",
          "type": "string"
        },
        {
          "internalType": "string",
          "name": "",
          "type": "string"
        },
        {
          "internalType": "address",
          "name": "",
          "type": "address"
        }
      ],
      "stateMutability": "view",
      "type": "function",
      "constant": true
    }
  ],
  "bytecode": "0x608060405234801561001057600080fd5b5061002d61002261003260201b60201c565b61003a60201b60201c565b6100fe565b600033905090565b60008060009054906101000a900473ffffffffffffffffffffffffffffffffffffffff169050816000806101000a81548173ffffffffffffffffffffffffffffffffffffffff021916908373ffffffffffffffffffffffffffffffffffffffff1602179055508173ffffffffffffffffffffffffffffffffffffffff168173ffffffffffffffffffffffffffffffffffffffff167f8be0079c531659141344cd1fd0a4f28419497f9722a3daafe3b4186f6b6457e060405160405180910390a35050565b610efc8061010d6000396000f3fe608060405234801561001057600080fd5b506004361061007d5760003560e01c80638da5cb5b1161005b5780638da5cb5b146100dc578063996d50bf146100fa578063f2fde38b14610116578063f4c714b4146101325761007d565b80632bfda3131461008257806343953519146100b4578063715018a6146100d2575b600080fd5b61009c60048036038101906100979190610907565b610164565b6040516100ab93929190610a0e565b60405180910390f35b6100bc610321565b6040516100c99190610a62565b60405180910390f35b6100da610327565b005b6100e46103af565b6040516100f19190610a7d565b60405180910390f35b610114600480360381019061010f9190610bcd565b6103d8565b005b610130600480360381019061012b9190610c71565b6104fd565b005b61014c60048036038101906101479190610907565b6105f4565b60405161015b93929190610a0e565b60405180910390f35b6060806000806001600086815260200190815260200160002060405180606001604052908160008201805461019890610ccd565b80601f01602080910402602001604051908101604052809291908181526020018280546101c490610ccd565b80156102115780601f106101e657610100808354040283529160200191610211565b820191906000526020600020905b8154815290600101906020018083116101f457829003601f168201915b5050505050815260200160018201805461022a90610ccd565b80601f016020809104026020016040519081016040528092919081815260200182805461025690610ccd565b80156102a35780601f10610278576101008083540402835291602001916102a3565b820191906000526020600020905b81548152906001019060200180831161028657829003601f168201915b505050505081526020016002820160009054906101000a900473ffffffffffffffffffffffffffffffffffffffff1673ffffffffffffffffffffffffffffffffffffffff1673ffffffffffffffffffffffffffffffffffffffff16815250509050806000015181602001518260400151935093509350509193909250565b60025481565b61032f61074e565b73ffffffffffffffffffffffffffffffffffffffff1661034d6103af565b73ffffffffffffffffffffffffffffffffffffffff16146103a3576040517f08c379a000000000000000000000000000000000000000000000000000000000815260040161039a90610d4a565b60405180910390fd5b6103ad6000610756565b565b60008060009054906101000a900473ffffffffffffffffffffffffffffffffffffffff16905090565b600260008154809291906103eb90610d99565b919050555060405180606001604052808381526020018281526020013373ffffffffffffffffffffffffffffffffffffffff16815250600160006002548152602001908152602001600020600082015181600001908051906020019061045292919061081a565b50602082015181600101908051906020019061046f92919061081a565b5060408201518160020160006101000a81548173ffffffffffffffffffffffffffffffffffffffff021916908373ffffffffffffffffffffffffffffffffffffffff1602179055509050507f6edffbd56628401d71fdb0444cb287571be6e6b0aadbbd9baf8b928dc536d79e6002548383336040516104f19493929190610de1565b60405180910390a15050565b61050561074e565b73ffffffffffffffffffffffffffffffffffffffff166105236103af565b73ffffffffffffffffffffffffffffffffffffffff1614610579576040517f08c379a000000000000000000000000000000000000000000000000000000000815260040161057090610d4a565b60405180910390fd5b600073ffffffffffffffffffffffffffffffffffffffff168173ffffffffffffffffffffffffffffffffffffffff16036105e8576040517f08c379a00000000000000000000000000000000000000000000000000000000081526004016105df90610ea6565b60405180910390fd5b6105f181610756565b50565b600160205280600052604060002060009150905080600001805461061790610ccd565b80601f016020809104026020016040519081016040528092919081815260200182805461064390610ccd565b80156106905780601f1061066557610100808354040283529160200191610690565b820191906000526020600020905b81548152906001019060200180831161067357829003601f168201915b5050505050908060010180546106a590610ccd565b80601f01602080910402602001604051908101604052809291908181526020018280546106d190610ccd565b801561071e5780601f106106f35761010080835404028352916020019161071e565b820191906000526020600020905b81548152906001019060200180831161070157829003601f168201915b5050505050908060020160009054906101000a900473ffffffffffffffffffffffffffffffffffffffff16905083565b600033905090565b60008060009054906101000a900473ffffffffffffffffffffffffffffffffffffffff169050816000806101000a81548173ffffffffffffffffffffffffffffffffffffffff021916908373ffffffffffffffffffffffffffffffffffffffff1602179055508173ffffffffffffffffffffffffffffffffffffffff168173ffffffffffffffffffffffffffffffffffffffff167f8be0079c531659141344cd1fd0a4f28419497f9722a3daafe3b4186f6b6457e060405160405180910390a35050565b82805461082690610ccd565b90600052602060002090601f016020900481019282610848576000855561088f565b82601f1061086157805160ff191683800117855561088f565b8280016001018555821561088f579182015b8281111561088e578251825591602001919060010190610873565b5b50905061089c91906108a0565b5090565b5b808211156108b95760008160009055506001016108a1565b5090565b6000604051905090565b600080fd5b600080fd5b6000819050919050565b6108e4816108d1565b81146108ef57600080fd5b50565b600081359050610901816108db565b92915050565b60006020828403121561091d5761091c6108c7565b5b600061092b848285016108f2565b91505092915050565b600081519050919050565b600082825260208201905092915050565b60005b8381101561096e578082015181840152602081019050610953565b8381111561097d576000848401525b50505050565b6000601f19601f8301169050919050565b600061099f82610934565b6109a9818561093f565b93506109b9818560208601610950565b6109c281610983565b840191505092915050565b600073ffffffffffffffffffffffffffffffffffffffff82169050919050565b60006109f8826109cd565b9050919050565b610a08816109ed565b82525050565b60006060820190508181036000830152610a288186610994565b90508181036020830152610a3c8185610994565b9050610a4b60408301846109ff565b949350505050565b610a5c816108d1565b82525050565b6000602082019050610a776000830184610a53565b92915050565b6000602082019050610a9260008301846109ff565b92915050565b600080fd5b600080fd5b7f4e487b7100000000000000000000000000000000000000000000000000000000600052604160045260246000fd5b610ada82610983565b810181811067ffffffffffffffff82111715610af957610af8610aa2565b5b80604052505050565b6000610b0c6108bd565b9050610b188282610ad1565b919050565b600067ffffffffffffffff821115610b3857610b37610aa2565b5b610b4182610983565b9050602081019050919050565b82818337600083830152505050565b6000610b70610b6b84610b1d565b610b02565b905082815260208101848484011115610b8c57610b8b610a9d565b5b610b97848285610b4e565b509392505050565b600082601f830112610bb457610bb3610a98565b5b8135610bc4848260208601610b5d565b91505092915050565b60008060408385031215610be457610be36108c7565b5b600083013567ffffffffffffffff811115610c0257610c016108cc565b5b610c0e85828601610b9f565b925050602083013567ffffffffffffffff811115610c2f57610c2e6108cc565b5b610c3b85828601610b9f565b9150509250929050565b610c4e816109ed565b8114610c5957600080fd5b50565b600081359050610c6b81610c45565b92915050565b600060208284031215610c8757610c866108c7565b5b6000610c9584828501610c5c565b91505092915050565b7f4e487b7100000000000000000000000000000000000000000000000000000000600052602260045260246000fd5b60006002820490506001821680610ce557607f821691505b602082108103610cf857610cf7610c9e565b5b50919050565b7f4f776e61626c653a2063616c6c6572206973206e6f7420746865206f776e6572600082015250565b6000610d3460208361093f565b9150610d3f82610cfe565b602082019050919050565b60006020820190508181036000830152610d6381610d27565b9050919050565b7f4e487b7100000000000000000000000000000000000000000000000000000000600052601160045260246000fd5b6000610da4826108d1565b91507fffffffffffffffffffffffffffffffffffffffffffffffffffffffffffffffff8203610dd657610dd5610d6a565b5b600182019050919050565b6000608082019050610df66000830187610a53565b8181036020830152610e088186610994565b90508181036040830152610e1c8185610994565b9050610e2b60608301846109ff565b95945050505050565b7f4f776e61626c653a206e6577206f776e657220697320746865207a65726f206160008201527f6464726573730000000000000000000000000000000000000000000000000000602082015250565b6000610e9060268361093f565b9150610e9b82610e34565b604082019050919050565b60006020820190508181036000830152610ebf81610e83565b905091905056fea2646970667358221220ee0341717cf3fc3f3310eb878ba7177c3c8b7fd6daabdbd705ffba1e86c85e6c64736f6c634300080d0033",
  "immutableReferences": {},
  "source": "// SPDX-License-Identifier: MIT\r\npragma solidity ^0.8.13;\r\n\r\nimport \"@openzeppelin/contracts/access/Ownable.sol\";\r\n\r\ncontract FileStorage is Ownable {\r\n    struct File {\r\n        string fileHash;\r\n        string fileName;\r\n        address owner;\r\n    }\r\n\r\n    mapping(uint256 => File) public files;\r\n    uint256 public fileCount;\r\n\r\n    event FileUploaded(uint256 fileId, string fileHash, string fileName, address owner);\r\n\r\n    function uploadFile(string memory _fileHash, string memory _fileName) public {\r\n        fileCount++;\r\n        files[fileCount] = File(_fileHash, _fileName, msg.sender);\r\n        emit FileUploaded(fileCount, _fileHash, _fileName, msg.sender);\r\n    }\r\n\r\n    function getFile(uint256 _fileId) public view returns (string memory, string memory, address) {\r\n        File memory file = files[_fileId];\r\n        return (file.fileHash, file.fileName, file.owner);\r\n    }\r\n}",
  "sourcePath": "C:\\Users\\HP\\desktop\\blockchain-enabled-cloud-storage\\contracts\\contracts\\FileStorage.sol",
  "compiler": {
    "name": "solc",
    "version": "0.8.13+commit.abaa5c0e.Emscripten.clang"
  },
  "schemaVersion": "3.4.16",
  "updatedAt": "2025-01-27T06:10:34.560Z",
  "networkType": "ethereum",
  "devdoc": {
    "kind": "dev",
    "methods": {
      "owner()": {
        "details": "Returns the address of the current owner."
      },
      "renounceOwnership()": {
        "details": "Leaves the contract without owner. It will not be possible to call `onlyOwner` functions anymore. Can only be called by the current owner. NOTE: Renouncing ownership will leave the contract without an owner, thereby removing any functionality that is only available to the owner."
      },
      "transferOwnership(address)": {
        "details": "Transfers ownership of the contract to a new account (`newOwner`). Can only be called by the current owner."
      }
    },
    "version": 1
  },
  "userdoc": {
    "kind": "user",
    "methods": {},
    "version": 1
  }
}