{
  "contractName": "UserManager",
  "abi": [
    {
      "anonymous": false,
      "inputs": [
        {
          "indexed": true,
          "internalType": "address",
          "name": "previousOwner",
          "type": "address"
        },
        {
          "indexed": true,
          "internalType": "address",
          "name": "newOwner",
          "type": "address"
        }
      ],
      "name": "OwnershipTransferred",
      "type": "event"
    },
    {
      "anonymous": false,
      "inputs": [
        {
          "indexed": false,
          "internalType": "address",
          "name": "user",
          "type": "address"
        }
      ],
      "name": "UserRegistered",
      "type": "event"
    },
    {
      "inputs": [],
      "name": "owner",
      "outputs": [
        {
          "internalType": "address",
          "name": "",
          "type": "address"
        }
      ],
      "stateMutability": "view",
      "type": "function",
      "constant": true
    },
    {
      "inputs": [
        {
          "internalType": "address",
          "name": "",
          "type": "address"
        }
      ],
      "name": "registeredUsers",
      "outputs": [
        {
          "internalType": "bool",
          "name": "",
          "type": "bool"
        }
      ],
      "stateMutability": "view",
      "type": "function",
      "constant": true
    },
    {
      "inputs": [],
      "name": "renounceOwnership",
      "outputs": [],
      "stateMutability": "nonpayable",
      "type": "function"
    },
    {
      "inputs": [
        {
          "internalType": "address",
          "name": "newOwner",
          "type": "address"
        }
      ],
      "name": "transferOwnership",
      "outputs": [],
      "stateMutability": "nonpayable",
      "type": "function"
    },
    {
      "inputs": [
        {
          "internalType": "address",
          "name": "_user",
          "type": "address"
        }
      ],
      "name": "registerUser",
      "outputs": [],
      "stateMutability": "nonpayable",
      "type": "function"
    },
    {
      "inputs": [
        {
          "internalType": "address",
          "name": "_user",
          "type": "address"
        }
      ],
      "name": "isUserRegistered",
      "outputs": [
        {
          "internalType": "bool",
          "name": "",
          "type": "bool"
        }
      ],
      "stateMutability": "view",
      "type": "function",
      "constant": true
    }
  ],
  "bytecode": "0x608060405234801561001057600080fd5b5061002d61002261003260201b60201c565b61003a60201b60201c565b6100fe565b600033905090565b60008060009054906101000a900473ffffffffffffffffffffffffffffffffffffffff169050816000806101000a81548173ffffffffffffffffffffffffffffffffffffffff021916908373ffffffffffffffffffffffffffffffffffffffff1602179055508173ffffffffffffffffffffffffffffffffffffffff168173ffffffffffffffffffffffffffffffffffffffff167f8be0079c531659141344cd1fd0a4f28419497f9722a3daafe3b4186f6b6457e060405160405180910390a35050565b61084c8061010d6000396000f3fe608060405234801561001057600080fd5b50600436106100625760003560e01c80630e50cee514610067578063163f7522146100975780632199d5cd146100c7578063715018a6146100e35780638da5cb5b146100ed578063f2fde38b1461010b575b600080fd5b610081600480360381019061007c919061060e565b610127565b60405161008e9190610656565b60405180910390f35b6100b160048036038101906100ac919061060e565b610147565b6040516100be9190610656565b60405180910390f35b6100e160048036038101906100dc919061060e565b61019d565b005b6100eb610337565b005b6100f56103bf565b6040516101029190610680565b60405180910390f35b6101256004803603810190610120919061060e565b6103e8565b005b60016020528060005260406000206000915054906101000a900460ff1681565b6000600160008373ffffffffffffffffffffffffffffffffffffffff1673ffffffffffffffffffffffffffffffffffffffff16815260200190815260200160002060009054906101000a900460ff169050919050565b6101a56104df565b73ffffffffffffffffffffffffffffffffffffffff166101c36103bf565b73ffffffffffffffffffffffffffffffffffffffff1614610219576040517f08c379a0000000000000000000000000000000000000000000000000000000008152600401610210906106f8565b60405180910390fd5b600160008273ffffffffffffffffffffffffffffffffffffffff1673ffffffffffffffffffffffffffffffffffffffff16815260200190815260200160002060009054906101000a900460ff16156102a6576040517f08c379a000000000000000000000000000000000000000000000000000000000815260040161029d90610764565b60405180910390fd5b60018060008373ffffffffffffffffffffffffffffffffffffffff1673ffffffffffffffffffffffffffffffffffffffff16815260200190815260200160002060006101000a81548160ff0219169083151502179055507f54db7a5cb4735e1aac1f53db512d3390390bb6637bd30ad4bf9fc98667d9b9b98160405161032c9190610680565b60405180910390a150565b61033f6104df565b73ffffffffffffffffffffffffffffffffffffffff1661035d6103bf565b73ffffffffffffffffffffffffffffffffffffffff16146103b3576040517f08c379a00000000000000000000000000000000000000000000000000000000081526004016103aa906106f8565b60405180910390fd5b6103bd60006104e7565b565b60008060009054906101000a900473ffffffffffffffffffffffffffffffffffffffff16905090565b6103f06104df565b73ffffffffffffffffffffffffffffffffffffffff1661040e6103bf565b73ffffffffffffffffffffffffffffffffffffffff1614610464576040517f08c379a000000000000000000000000000000000000000000000000000000000815260040161045b906106f8565b60405180910390fd5b600073ffffffffffffffffffffffffffffffffffffffff168173ffffffffffffffffffffffffffffffffffffffff16036104d3576040517f08c379a00000000000000000000000000000000000000000000000000000000081526004016104ca906107f6565b60405180910390fd5b6104dc816104e7565b50565b600033905090565b60008060009054906101000a900473ffffffffffffffffffffffffffffffffffffffff169050816000806101000a81548173ffffffffffffffffffffffffffffffffffffffff021916908373ffffffffffffffffffffffffffffffffffffffff1602179055508173ffffffffffffffffffffffffffffffffffffffff168173ffffffffffffffffffffffffffffffffffffffff167f8be0079c531659141344cd1fd0a4f28419497f9722a3daafe3b4186f6b6457e060405160405180910390a35050565b600080fd5b600073ffffffffffffffffffffffffffffffffffffffff82169050919050565b60006105db826105b0565b9050919050565b6105eb816105d0565b81146105f657600080fd5b50565b600081359050610608816105e2565b92915050565b600060208284031215610624576106236105ab565b5b6000610632848285016105f9565b91505092915050565b60008115159050919050565b6106508161063b565b82525050565b600060208201905061066b6000830184610647565b92915050565b61067a816105d0565b82525050565b60006020820190506106956000830184610671565b92915050565b600082825260208201905092915050565b7f4f776e61626c653a2063616c6c6572206973206e6f7420746865206f776e6572600082015250565b60006106e260208361069b565b91506106ed826106ac565b602082019050919050565b60006020820190508181036000830152610711816106d5565b9050919050565b7f5573657220616c72656164792072656769737465726564000000000000000000600082015250565b600061074e60178361069b565b915061075982610718565b602082019050919050565b6000602082019050818103600083015261077d81610741565b9050919050565b7f4f776e61626c653a206e6577206f776e657220697320746865207a65726f206160008201527f6464726573730000000000000000000000000000000000000000000000000000602082015250565b60006107e060268361069b565b91506107eb82610784565b604082019050919050565b6000602082019050818103600083015261080f816107d3565b905091905056fea2646970667358221220d870d0d48232b1176550f31c78bc7b1cd377bdf6a70b4f23f8d692e9b44822a864736f6c634300080d0033",
  "immutableReferences": {},
  "source": "// SPDX-License-Identifier: MIT\r\npragma solidity ^0.8.13;\r\n\r\nimport \"@openzeppelin/contracts/access/Ownable.sol\";\r\n\r\ncontract UserManager is Ownable {\r\n    mapping(address => bool) public registeredUsers;\r\n\r\n    event UserRegistered(address user);\r\n\r\n    function registerUser(address _user) public onlyOwner {\r\n        require(!registeredUsers[_user], \"User already registered\");\r\n        registeredUsers[_user] = true;\r\n        emit UserRegistered(_user);\r\n    }\r\n\r\n    function isUserRegistered(address _user) public view returns (bool) {\r\n        return registeredUsers[_user];\r\n    }\r\n}",
  "sourcePath": "C:\\Users\\HP\\desktop\\blockchain-enabled-cloud-storage\\contracts\\contracts\\UserManager.sol",
  "compiler": {
    "name": "solc",
    "version": "0.8.13+commit.abaa5c0e.Emscripten.clang"
  },
  "schemaVersion": "3.4.16",
  "updatedAt": "2025-01-27T06:10:34.569Z",
  "networkType": "ethereum",
  "devdoc": {
    "kind": "dev",
    "methods": {
      "owner()": {
        "details": "Returns the address of the current owner."
      },
      "renounceOwnership()": {
        "details": "Leaves the contract without owner. It will not be possible to call `onlyOwner` functions anymore. Can only be called by the current owner. NOTE: Renouncing ownership will leave the contract without an owner, thereby removing any functionality that is only available to the owner."
      },
      "transferOwnership(address)": {
        "details": "Transfers ownership of the contract to a new account (`newOwner`). Can only be called by the current owner."
      }
    },
    "version": 1
  },
  "userdoc": {
    "kind": "user",
    "methods": {},
    "version": 1
  }
}